{
  "contractName": "Lottery",
  "abi": [
    {
      "inputs": [],
      "stateMutability": "nonpayable",
      "type": "constructor"
    },
    {
      "inputs": [
        {
          "internalType": "uint256",
          "name": "",
          "type": "uint256"
        }
      ],
      "name": "players",
      "outputs": [
        {
          "internalType": "address payable",
          "name": "",
          "type": "address"
        }
      ],
      "stateMutability": "view",
      "type": "function",
      "constant": true
    },
    {
      "inputs": [],
      "name": "winner",
      "outputs": [
        {
          "internalType": "address payable",
          "name": "",
          "type": "address"
        }
      ],
      "stateMutability": "view",
      "type": "function",
      "constant": true
    },
    {
      "stateMutability": "payable",
      "type": "receive",
      "payable": true
    },
    {
      "inputs": [],
      "name": "getBalance",
      "outputs": [
        {
          "internalType": "uint256",
          "name": "",
          "type": "uint256"
        }
      ],
      "stateMutability": "view",
      "type": "function",
      "constant": true
    },
    {
      "inputs": [],
      "name": "pickWinner",
      "outputs": [],
      "stateMutability": "nonpayable",
      "type": "function"
    },
    {
      "inputs": [],
      "name": "allPlayers",
      "outputs": [
        {
          "internalType": "address payable[]",
          "name": "",
          "type": "address[]"
        }
      ],
      "stateMutability": "view",
      "type": "function",
      "constant": true
    }
  ],
  "bytecode": "0x608060405234801561001057600080fd5b5033600160006101000a81548173ffffffffffffffffffffffffffffffffffffffff021916908373ffffffffffffffffffffffffffffffffffffffff160217905550610b09806100616000396000f3fe60806040526004361061004e5760003560e01c806312065fe0146101075780635d495aea14610132578063b0ec809414610149578063dfbf53ae14610174578063f71d96cb1461019f57610102565b3661010257670de0b6b3a7640000341461009d576040517f08c379a0000000000000000000000000000000000000000000000000000000008152600401610094906106f1565b60405180910390fd5b6000339080600181540180825580915050600190039060005260206000200160009091909190916101000a81548173ffffffffffffffffffffffffffffffffffffffff021916908373ffffffffffffffffffffffffffffffffffffffff160217905550005b600080fd5b34801561011357600080fd5b5061011c6101dc565b604051610129919061072a565b60405180910390f35b34801561013e57600080fd5b50610147610274565b005b34801561015557600080fd5b5061015e6104c0565b60405161016b9190610835565b60405180910390f35b34801561018057600080fd5b5061018961054e565b6040516101969190610866565b60405180910390f35b3480156101ab57600080fd5b506101c660048036038101906101c191906108b2565b610574565b6040516101d39190610866565b60405180910390f35b60003373ffffffffffffffffffffffffffffffffffffffff16600160009054906101000a900473ffffffffffffffffffffffffffffffffffffffff1673ffffffffffffffffffffffffffffffffffffffff161461026e576040517f08c379a00000000000000000000000000000000000000000000000000000000081526004016102659061092b565b60405180910390fd5b47905090565b600160009054906101000a900473ffffffffffffffffffffffffffffffffffffffff1673ffffffffffffffffffffffffffffffffffffffff163373ffffffffffffffffffffffffffffffffffffffff1614610304576040517f08c379a00000000000000000000000000000000000000000000000000000000081526004016102fb9061092b565b60405180910390fd5b6003600080549050101561034d576040517f08c379a000000000000000000000000000000000000000000000000000000000815260040161034490610997565b60405180910390fd5b60006103576105b3565b9050600080805490508261036b91906109e6565b90506000818154811061038157610380610a17565b5b9060005260206000200160009054906101000a900473ffffffffffffffffffffffffffffffffffffffff16600260006101000a81548173ffffffffffffffffffffffffffffffffffffffff021916908373ffffffffffffffffffffffffffffffffffffffff160217905550600260009054906101000a900473ffffffffffffffffffffffffffffffffffffffff1673ffffffffffffffffffffffffffffffffffffffff166108fc6104306101dc565b9081150290604051600060405180830381858888f1935050505015801561045b573d6000803e3d6000fd5b50600067ffffffffffffffff81111561047757610476610a46565b5b6040519080825280602002602001820160405280156104a55781602001602082028036833780820191505090505b50600090805190602001906104bb9291906105ed565b505050565b6060600080548060200260200160405190810160405280929190818152602001828054801561054457602002820191906000526020600020905b8160009054906101000a900473ffffffffffffffffffffffffffffffffffffffff1673ffffffffffffffffffffffffffffffffffffffff16815260200190600101908083116104fa575b5050505050905090565b600260009054906101000a900473ffffffffffffffffffffffffffffffffffffffff1681565b6000818154811061058457600080fd5b906000526020600020016000915054906101000a900473ffffffffffffffffffffffffffffffffffffffff1681565b600044426000805490506040516020016105cf93929190610a96565b6040516020818303038152906040528051906020012060001c905090565b828054828255906000526020600020908101928215610666579160200282015b828111156106655782518260006101000a81548173ffffffffffffffffffffffffffffffffffffffff021916908373ffffffffffffffffffffffffffffffffffffffff1602179055509160200191906001019061060d565b5b5090506106739190610677565b5090565b5b80821115610690576000816000905550600101610678565b5090565b600082825260208201905092915050565b7f506c65617365207061792031206574686572206f6e6c79000000000000000000600082015250565b60006106db601783610694565b91506106e6826106a5565b602082019050919050565b6000602082019050818103600083015261070a816106ce565b9050919050565b6000819050919050565b61072481610711565b82525050565b600060208201905061073f600083018461071b565b92915050565b600081519050919050565b600082825260208201905092915050565b6000819050602082019050919050565b600073ffffffffffffffffffffffffffffffffffffffff82169050919050565b600061079c82610771565b9050919050565b6107ac81610791565b82525050565b60006107be83836107a3565b60208301905092915050565b6000602082019050919050565b60006107e282610745565b6107ec8185610750565b93506107f783610761565b8060005b8381101561082857815161080f88826107b2565b975061081a836107ca565b9250506001810190506107fb565b5085935050505092915050565b6000602082019050818103600083015261084f81846107d7565b905092915050565b61086081610791565b82525050565b600060208201905061087b6000830184610857565b92915050565b600080fd5b61088f81610711565b811461089a57600080fd5b50565b6000813590506108ac81610886565b92915050565b6000602082840312156108c8576108c7610881565b5b60006108d68482850161089d565b91505092915050565b7f596f7520617265206e6f7420746865206d616e61676572000000000000000000600082015250565b6000610915601783610694565b9150610920826108df565b602082019050919050565b6000602082019050818103600083015261094481610908565b9050919050565b7f506c617965727320617265206c657373207468616e2033000000000000000000600082015250565b6000610981601783610694565b915061098c8261094b565b602082019050919050565b600060208201905081810360008301526109b081610974565b9050919050565b7f4e487b7100000000000000000000000000000000000000000000000000000000600052601260045260246000fd5b60006109f182610711565b91506109fc83610711565b925082610a0c57610a0b6109b7565b5b828206905092915050565b7f4e487b7100000000000000000000000000000000000000000000000000000000600052603260045260246000fd5b7f4e487b7100000000000000000000000000000000000000000000000000000000600052604160045260246000fd5b6000819050919050565b610a90610a8b82610711565b610a75565b82525050565b6000610aa28286610a7f565b602082019150610ab28285610a7f565b602082019150610ac28284610a7f565b60208201915081905094935050505056fea2646970667358221220b85490fc638872a39500372ece6e9bbb9ec298de92a0817fd12261f3de3f8de564736f6c634300080b0033",
  "immutableReferences": {},
  "source": "//SPDX-License-Identifier: GPL-3.0\n\npragma solidity >=0.5.0 <0.9.0;\n\ncontract Lottery {\n    address payable[] public players;\n    address manager;\n    address payable public winner;\n\n    constructor() {\n        manager = msg.sender;\n    }\n\n    receive() external payable {\n        require(msg.value == 1 ether, \"Please pay 1 ether only\");\n        players.push(payable(msg.sender));\n    }\n\n    function getBalance() public view returns (uint256) {\n        require(manager == msg.sender, \"You are not the manager\");\n        return address(this).balance;\n    }\n\n    function random() internal view returns (uint256) {\n        return\n            uint256(\n                keccak256(\n                    abi.encodePacked(\n                        block.difficulty,\n                        block.timestamp,\n                        players.length\n                    )\n                )\n            );\n    }\n\n    function pickWinner() public {\n        require(msg.sender == manager, \"You are not the manager\");\n        require(players.length >= 3, \"Players are less than 3\");\n\n        uint256 r = random();\n        uint256 index = r % players.length; //remainder <players.length\n        winner = players[index];\n        winner.transfer(getBalance());\n        players = new address payable[](0);\n    }\n\n    function allPlayers() public view returns (address payable[] memory) {\n        return players;\n    }\n}\n//0x96fE2197559E85a079F63032B9f7CAAB7Ef99947\n//ganache - 0x17a12a5BDA84709186Fd998051672e57D3b2df1\n",
  "sourcePath": "C:\\Users\\ksriv\\Desktop\\Projects\\New folder (2)\\LotteryTutorial\\web3lab\\contracts\\Lottery.sol",
  "compiler": {
    "name": "solc",
    "version": "0.8.11+commit.d7f03943.Emscripten.clang"
  },
  "schemaVersion": "3.4.5",
  "updatedAt": "2022-09-04T05:06:49.780Z",
  "networkType": "ethereum",
  "devdoc": {
    "kind": "dev",
    "methods": {},
    "version": 1
  },
  "userdoc": {
    "kind": "user",
    "methods": {},
    "version": 1
  }
}